S00B00004C43442E7372656346
S11300000C942A000C943F000C943F000C943F0085
S11300100C943F000C943F000C943F000C943F0060
S11300200C943F000C943F000C943F000C943F0050
S11300300C943F000C943F000C943F000C943F0040
S11300400C943F000C943F000C943F000C943F0030
S11300500C943F0011241FBECFE5D8E0DEBFCDBF16
S113006010E0A0E6B0E0E0E5F2E002C005900D92F9
S1130070A237B107D9F70E94D5000C9426010C943D
S1130080000088B3846088BB8FEC97E00197F1F798
S113009000C0000088B38B7F88BB08958AB31ABA66
S11300A088B3826088BB88B38E7F88BB0E9441007E
S11300B08AB38FEF8ABB88B38D7F88BB0895CF93B3
S11300C0C82F0E944E00CBBB0E944100CF910895DF
S11300D081E00E945F0008958FE39CE90197F1F7A6
S11300E000C0000087B3876087BB88B3887F88BB64
S11300F08FEF8ABB81E00E945F008FE19EE401974D
S1130100F1F700C0000088E30E945F0086E00E94CF
S11301105F0080E80E945F008FE00E945F00089506
S1130120CF93C82F0E944E0088B3816088BBCBBB9D
S11301300E944100CF910895813039F4603128F450
S113014080E8860F0E945F000895823021F480ECDD
S1130150860F0E945F0008950F931F93CF93DF9340
S11301608C01C0E0D0E018C021960F5F1F4F0E94A1
S11301709000C031D10529F460E082E00E949C0027
S11301800BC0C032D10541F40E94680060E081E0F8
S11301900E949C00C0E0D0E0F80180818111E4CF8E
S11301A0DF91CF911F910F910895CF93DF93CDB736
S11301B0DEB762970FB6F894DEBF0FBECDBF82E103
S11301C0E0E6F0E0DE01119601900D928A95E1F7E8
S11301D00E946C0081E40E9490002FEF84E39CE075
S11301E0215080409040E1F700C0000082E40E946A
S11301F090002FEF84E39CE0215080409040E1F791
S113020000C000000E9468002FEF89E698E12150A9
S113021080409040E1F700C00000CE0101960E94AA
S1130220AC002FEF89E698E1215080409040E1F73F
S113023000C000000E9468002FEF89E698E1215079
S113024080409040E1F700C00000C4CFF894FFCF95
S11302505A696164204D61686D6F756420536161F2
S1050260640034
S9030000FC
