:020000040800F2
:1000000000280020A1020008F1020008F102000807
:10001000F1020008F1020008F102000800000000EF
:10002000000000000000000000000000F1020008D5
:10003000F102000800000000F1020008F1020008CF
:10004000F1020008F1020008F1020008F1020008C4
:10005000F1020008F1020008F1020008F1020008B4
:10006000F1020008F1020008F1020008F1020008A4
:10007000F1020008F1020008F1020008F102000894
:10008000F1020008F1020008F1020008F102000884
:10009000F1020008F1020008F1020008F102000874
:1000A000F1020008F1020008F1020008F102000864
:1000B000F1020008F1020008F1020008F102000854
:1000C000F1020008F1020008F1020008F102000844
:1000D000F1020008F1020008F1020008F102000834
:1000E000F1020008F102000800000000F10200081F
:1000F000F1020008F1020008F1020008F102000814
:10010000F1020008F1020008F1020008F102000803
:10011000F1020008F1020008F1020008F1020008F3
:10012000F1020008F1020008F1020008F1020008E3
:1001300010B5054C237833B9044B13B10448AFF321
:1001400000800123237010BD00000020000000008B
:100150004805000808B5034B1BB103490348AFF33A
:10016000008008BD000000000400002048050008D1
:1001700080B500AF00F02EF800F040F802211348DF
:1001800000F096F90346002B0BD10221104800F035
:10019000A6F900BF02210D4800F08AF90346002BA2
:1001A000F8D04FF48051094800F082F90346012B42
:1001B00008D14FF48051064800F091F94FF47A705D
:1001C00000F052F8012000F04FF8D7E70008014096
:1001D000000C014080B400AF074B9B69064A43F016
:1001E00004039361044B9B69034A43F00803936142
:1001F00000BFBD4680BC70470010024080B582B091
:1002000000AF02233B8001237B803B461946144804
:1002100000F0D2F802233B8004237B800123BB80C3
:100220003B4619460F4800F0C7F84FF480533B8017
:1002300001237B803B461946094800F0BDF84FF486
:1002400080533B8004237B800123BB803B461946BF
:10025000044800F0B1F800BF0837BD4680BD00BFBC
:1002600000080140000C014080B485B000AF786008
:100270000023FB600BE00023BB6002E0BB6801339E
:10028000BB60BB68FE2BF9D9FB680133FB60FA68E1
:100290007B689A42EFD300BF1437BD4680BC7047DD
:1002A0000D488546AFF300800C480D490D4A0023E8
:1002B00002E0D458C4500433C4188C42F9D30A4A1B
:1002C0000A4C002301E013600432A242FBD300F089
:1002D00017F9FFF74DFFFEE700280020000000207F
:1002E0000000002068050008000000201C0000201D
:1002F000FEE780B483B000AF0346FB80FB88802B11
:1003000042D0802B11DC082B36D0082B06DC022BC8
:100310002ED0042B2ED0012B28D047E0202B2FD01D
:10032000402B2FD0102B29D040E0B3F5006F33D0F5
:10033000B3F5006F09DCB3F5007F29D0B3F5806F0A
:1003400028D0B3F5807F21D030E0B3F5005F27D00F
:10035000B3F5005F03DCB3F5805F1FD026E0B3F593
:10036000804F1FD0B3F5004F1ED01FE000231EE0CA
:1003700004231CE008231AE00C2318E0102316E0E5
:10038000142314E0182312E01C2310E000230EE0D5
:1003900004230CE008230AE00C2308E0102306E005
:1003A000142304E0182302E01C2300E00023184675
:1003B0000C37BD4680BC704790B585B000AF786003
:1003C00039600023FB600023FB723B681B88FF2B16
:1003D00001D87B6801E07B680433FB603B681B88C5
:1003E0001846FFF786FF03461A460F239340DA4369
:1003F000FB681B681A40FB681A603B685B88042B2B
:100400000BD03B685B88052B07D03B685B88062BCD
:1004100003D03B685B88072B0FD13B685B88043BAC
:100420009B005AB23B689B885BB213435BB2DBB262
:1004300003F00F03DBB2FB7226E03B685B88002B06
:1004400003D03B685B88012B08D13B685B889B002D
:10045000DBB203F00F03DBB2FB7215E00823FB7283
:100460003B685B88032B08D17B68DB683A6812889D
:10047000D2431A407B68DA6006E07B68DB683A6842
:1004800012881A437B68DA60FB7ADBB21C463B6851
:100490001B881846FFF72DFF034604FA03F2FB689A
:1004A0001B681A43FB681A6000BF1437BD4690BD35
:1004B00080B485B000AF78600B467B807B689A681B
:1004C0007B881340002B02D00123FB7301E0002343
:1004D000FB73FB7B18461437BD4680BC704780B465
:1004E00083B000AF78600B467B807B68DA687B88DE
:1004F0005A407B68DA6000BF0C37BD4680BC70474D
:1005000070B500250C4E0D4CA41BA410A54209D1BA
:1005100000F01AF800250A4E0A4CA41BA410A542AC
:1005200005D170BD56F8253098470135EEE756F8ED
:10053000253098470135F2E760050008600500089E
:100540006005000864050008F8B500BFF8BC08BCE9
:100550009E467047F8B500BFF8BC08BC9E46704781
:040560005501000839
:040564003101000859
:04000005080002A14C
:00000001FF
