S01500004C6162335F41546D65676133322E73726563DA
S11300000C942A000C944C000C9468000C9484000A
S11300100C9434000C9434000C9434000C9434008C
S11300200C9434000C9434000C9434000C9434007C
S11300300C9434000C9434000C9434000C9434006C
S11300400C9434000C9434000C9434000C9434005C
S11300500C94340011241FBECFE5D8E0DEBFCDBF21
S11300600E9443000C94A0000C94000085B78D609E
S113007085BF84B78F7B84BF8BB7806E8BBF8FB7F0
S113008080688FBF08950E94360081B3806E81BB63
S113009082B38F7182BBFCCF1F920F920FB60F9267
S11300A011242F938F939F9382B3806282BB2FEF8F
S11300B080E792E0215080409040E1F700C00000CA
S11300C09F918F912F910F900FBE0F901F901895B5
S11300D01F920F920FB60F9211242F938F939F9319
S11300E082B3806482BB2FEF80E792E0215080408E
S11300F09040E1F700C000009F918F912F910F90E5
S11301000FBE0F901F9018951F920F920FB60F926B
S113011011242F938F939F9382B3806882BB2FEF18
S113012080E792E0215080409040E1F700C0000059
S11301309F918F912F910F900FBE0F901F90189544
S1070140F894FFCF5D
S9030000FC
