:020000040800F2
:100000000028002059020008A9020008A9020008DF
:10001000A9020008A9020008A902000800000000C7
:10002000000000000000000000000000A90200081D
:10003000A902000800000000A9020008A9020008A7
:10004000A9020008A9020008A9020008A9020008E4
:10005000A9020008A9020008610A0008850A000830
:10006000A90A0008CD0A0008F10A0008A902000840
:10007000A9020008A9020008A9020008A9020008B4
:10008000A9020008A9020008A9020008A9020008A4
:10009000A9020008A9020008A9020008150B00081F
:1000A000A9020008A9020008A9020008A902000884
:1000B000A9020008A9020008A9020008A902000874
:1000C000A9020008A9020008A9020008A902000864
:1000D000A9020008A9020008A9020008A902000854
:1000E000BD0B0008A902000800000000A9020008DA
:1000F000A9020008A9020008A9020008A902000834
:10010000A9020008A9020008A9020008A902000823
:10011000A9020008A9020008A9020008A902000813
:10012000A9020008A9020008A9020008A902000803
:1001300010B5054C237833B9044B13B10448AFF321
:1001400000800123237010BD00000020000000008B
:10015000CC0E000808B5034B1BB103490348AFF3AD
:10016000008008BD0000000004000020CC0E000844
:1001700080B586B000AF00F027F800F07BF900F002
:10018000B0F80E4A3B1D07CA83E8070000233B7402
:100190000B4B7B6100237B743B1D184600F070FD08
:1001A000084B01221A70074B1B78002BFBD000F084
:1001B00098F8044B00221A70F5E700BFE40E00081F
:1001C000350200081C00002080B400AF0A4B9B6978
:1001D000094A43F004039361074B9B69064A43F0C5
:1001E00008039361044B9B69034A43F00103936145
:1001F00000BFBD4680BC70470010024080B485B08F
:1002000000AF78600023FB600BE00023BB6002E0DE
:10021000BB680133BB60BB68FE2BF9D9FB680133B7
:10022000FB60FA687B689A42EFD300BF1437BD4683
:1002300080BC704780B500AF054B01221A7005489D
:1002400000F038FA4FF47A70FFF7D8FF00BF80BD96
:100250001C000020F00E00080D488546AFF300801A
:100260000C480D490D4A002302E0D458C450043311
:10027000C4188C42F9D30A4A0A4C002301E01360E7
:100280000432A242FBD300F0FDFDFFF771FFFEE751
:10029000002800200000002000000020140F0008AB
:1002A0000000002068000020FEE780B485B000AFA9
:1002B00078600023FB600BE00023BB6002E0BB68BA
:1002C0000133BB60BB68FE2BF9D9FB680133FB60CF
:1002D000FA687B689A42EFD300BF1437BD4680BCF2
:1002E000704780B500AF012000F0E2F800BF80BD8C
:1002F00080B500AF01224FF48061074800F0AAFDED
:100300000520FFF7D2FF00224FF48061024800F081
:10031000A1FD00BF80BD00BF0008014080B500AF57
:10032000524B04225A80514B4FF480621A804F4B3B
:1003300001229A804D494E4800F010FD4B4B04229B
:100340005A804A4B4FF400721A80484B01229A801F
:100350004649474800F002FD444B04225A80434B73
:100360004FF480721A80414B01229A803F494048E5
:1003700000F0F4FC00224FF480613D4800F06AFD7B
:1003800000224FF400713A4800F064FD00224FF45F
:100390008071374800F05EFD344B04225A80334BA5
:1003A00001221A80314B01229A803049304800F0F6
:1003B000D5FC2E4B04225A802C4B02221A802B4B48
:1003C00001229A8029492A4800F0C8FC274B0422C0
:1003D0005A80264B04221A80244B01229A802349FA
:1003E000234800F0BBFC214B04225A801F4B0822FB
:1003F0001A801E4B01229A801C491D4800F0AEFC59
:100400001A4B04225A80194B10221A80174B0122D2
:100410009A801649164800F0A1FC144B04225A8019
:10042000124B20221A80114B01229A800F4910484A
:1004300000F094FC0D4B04225A800C4B40221A8091
:100440000A4B01229A800949094800F087FC074BB2
:1004500004225A80054B80221A80044B01229A8084
:100460000249034800F07AFC00BF80BD2000002054
:100470000008014080B500AF1420FFF716FFFFF71A
:100480004DFF1420FFF711FF012000F011F8382074
:1004900000F00EF80520FFF708FF062000F008F82E
:1004A000802000F005F80F2000F002F800BF80BDAA
:1004B00080B582B000AF0346FB7100224FF400719B
:1004C000324800F0C7FC00224FF480712F4800F042
:1004D000C1FCFB7903F00103DBB21A4601212B4872
:1004E00000F0B8FCFB795B08DBB203F00103DBB280
:1004F0001A460221254800F0ADFCFB799B08DBB2CF
:1005000003F00103DBB21A460421204800F0A2FCEC
:10051000FB79DB08DBB203F00103DBB21A460821EA
:100520001A4800F097FCFB791B09DBB203F00103CA
:10053000DBB21A461021154800F08CFCFB795B09F0
:10054000DBB203F00103DBB21A4620210F4800F0B2
:1005500081FCFB799B09DBB203F00103DBB21A4695
:1005600040210A4800F076FCFB79DB09DBB21A4631
:100570008021064800F06EFC0120FFF796FEFFF791
:10058000B7FE00BF0837BD4680BD00BF0008014070
:1005900080B582B000AF0346FB7100224FF40071BA
:1005A000324800F057FC01224FF480712F4800F0D0
:1005B00051FCFB7903F00103DBB21A4601212B4801
:1005C00000F048FCFB795B08DBB203F00103DBB20F
:1005D0001A460221254800F03DFCFB799B08DBB25E
:1005E00003F00103DBB21A460421204800F032FC7C
:1005F000FB79DB08DBB203F00103DBB21A4608210A
:100600001A4800F027FCFB791B09DBB203F0010359
:10061000DBB21A461021154800F01CFCFB795B097F
:10062000DBB203F00103DBB21A4620210F4800F0D1
:1006300011FCFB799B09DBB203F00103DBB21A4624
:1006400040210A4800F006FCFB79DB09DBB21A46C0
:100650008021064800F0FEFB0120FFF726FEFFF791
:1006600047FE00BF0837BD4680BD00BF00080140FF
:1006700080B582B000AF03460A46FB711346BB71DA
:10068000FB79012B09D1BB790F2B06D8BB79803BB5
:10069000DBB21846FFF70CFF08E0FB79022B05D10F
:1006A000BB79403BDBB21846FFF702FF00BF0837BB
:1006B000BD4680BD80B584B000AF78600023FB608C
:1006C0001CE0FB680133FB607B685A1C7A601B7876
:1006D0001846FFF75DFFFB68102B04D100210220B4
:1006E000FFF7C6FF0AE0FB68202B07D1FFF7F9FDF3
:1006F00000210120FFF7BCFF0023FB607B681B7813
:10070000002BDED100BF1037BD4680BD80B483B062
:1007100000AF0346FB80FB880F2B54D801A252F890
:1007200023F000BF65070008730700088107000871
:100730008F0700089D070008AB070008AB070008FB
:10074000AB070008AB070008AB070008B9070008B3
:10075000B9070008B9070008B9070008B907000879
:10076000B90700081A4B1B68194A43F0400313608D
:1007700029E0174B1B68164A43F08003136022E000
:10078000134B1B68124A43F4807313601BE0104B39
:100790001B680F4A43F40073136014E00C4B1B6892
:1007A0000B4A43F4806313600DE0094B1B68084A51
:1007B00043F40003136006E0064B1B68054A43F44C
:1007C0008073136000BF00BF0C37BD4680BC70470C
:1007D00000E100E004E100E080B483B000AF034634
:1007E000FB80FB880F2B54D801A252F823F000BFE6
:1007F000310800083F0800084D0800085B080008A1
:1008000069080008770800087708000877080008DA
:1008100077080008770800088508000885080008A0
:100820008508000885080008850800088508000874
:100830001A4B1B68194A43F04003136029E0174B19
:100840001B68164A43F08003136022E0134B1B68B9
:10085000124A43F4807313601BE0104B1B680F4A6D
:1008600043F40073136014E00C4B1B680B4A43F411
:10087000806313600DE0094B1B68084A43F40003D2
:10088000136006E0064B1B68054A43F4807313604F
:1008900000BF00BF0C37BD4680BC704780E100E060
:1008A00084E100E080B584B000AF78607B681B898C
:1008B0003B8101237B817B685B6807F1080211465D
:1008C000184600F04BFA7B681B889B089BB2FB73B1
:1008D0007B681B88DBB203F00303DBB29B00BB73B6
:1008E000574AFB7B023352F82320BB7B0F2101FACE
:1008F00003F3DB4318465249FB7B0240023341F8C5
:1009000023204F4AFB7B023352F823207B685B682D
:100910004C498B421DD07B685B684B498B4216D09B
:100920007B685B6849498B420FD07B685B684849AC
:100930008B4208D07B685B6846498B4201D1042317
:1009400008E0002306E0032304E0022302E0012381
:1009500000E00023B97B8B4018463949FB7B0243FA
:10096000023341F823203C4B9B687A681289D243BA
:100970001146394A0B409360374BDB687A6812891D
:10098000D2431146344A0B40D3607B681B7B002B5B
:1009900008D1314B9B687A68128911462E4A0B4365
:1009A000936020E07B681B7B012B08D12A4BDB681E
:1009B0007A6812891146284A0B43D36013E07B689A
:1009C0001B7B022B0FD1244B9B687A68128911463E
:1009D000214A0B439360204BDB687A6812891146E9
:1009E0001D4A0B43D3607B681B8819467B681B69D3
:1009F0001A4A42F821307B685B7B002B0DD1164BE5
:100A00001B687A6812891146134A0B4313607B688E
:100A10001B881846FFF77AFE0DE00F4B1B687A68BB
:100A20001289D24311460C4A0B4013607B681B8825
:100A30001846FFF7D1FE00BF1037BD4680BD00BF8E
:100A40000000014000080140000C0140001001407E
:100A5000001401400018014000040140280000205B
:100A600080B500AF054B5B69044A43F00103536155
:100A7000034B1B68984700BF80BD00BF00040140C6
:100A80002800002080B500AF054B5B69044A43F0A5
:100A900001035361034B1B68984700BF80BD00BF33
:100AA000000401402800002080B500AF054B5B69C1
:100AB000044A43F002035361034B5B68984700BF4D
:100AC00080BD00BF000401402800002080B500AFB9
:100AD000054B5B69044A43F004035361034B9B6875
:100AE000984700BF80BD00BF0004014028000020DF
:100AF00080B500AF054B5B69044A43F008035361BE
:100B0000034BDB68984700BF80BD00BF0004014075
:100B10002800002080B500AF264B5B6903F020035E
:100B2000002B08D0234B5B69224A43F0200353611A
:100B3000214B5B6998471F4B5B6903F04003002B17
:100B400008D01C4B5B691B4A43F0400353611A4BAE
:100B50009B699847174B5B6903F08003002B08D013
:100B6000144B5B69134A43F080035361124BDB69FA
:100B70009847104B5B6903F48073002B08D00D4B32
:100B80005B690C4A43F4807353610B4B1B6A9847B3
:100B9000084B5B6903F40073002B08D0054B5B69BD
:100BA000044A43F400735361034B5B6A984700BFE8
:100BB00080BD00BF000401402800002080B500AFC8
:100BC0002D4B5B6903F48063002B08D02A4B5B69D3
:100BD000294A43F480635361284B9B6A9847264B0C
:100BE0005B6903F40063002B08D0234B5B69224A46
:100BF00043F400635361214BDB6A98471E4B5B69EA
:100C000003F48053002B08D01B4B5B691A4A43F452
:100C100080535361194B1B6B9847174B5B6903F467
:100C20000053002B08D0144B5B69134A43F4005364
:100C30005361124B5B6B98470F4B5B6903F4804326
:100C4000002B08D00C4B5B690B4A43F48043536183
:100C50000A4B9B6B9847084B5B6903F40043002BDE
:100C600008D0054B5B69044A43F400435361034BCE
:100C7000DB6B984700BF80BD0004014028000020C6
:100C800080B582B000AF78607868FFF70BFE00BFD8
:100C90000837BD4680BD80B483B000AF0346FB80FB
:100CA000FB88802B42D0802B11DC082B36D0082B00
:100CB00006DC022B2ED0042B2ED0012B28D047E0AF
:100CC000202B2FD0402B2FD0102B29D040E0B3F574
:100CD000006F33D0B3F5006F09DCB3F5007F29D086
:100CE000B3F5806F28D0B3F5807F21D030E0B3F525
:100CF000005F27D0B3F5005F03DCB3F5805F1FD042
:100D000026E0B3F5804F1FD0B3F5004F1ED01FE093
:100D100000231EE004231CE008231AE00C2318E043
:100D2000102316E0142314E0182312E01C2310E013
:100D300000230EE004230CE008230AE00C2308E063
:100D4000102306E0142304E0182302E01C2300E033
:100D5000002318460C37BD4680BC704790B585B05F
:100D600000AF786039600023FB600023FB723B68B2
:100D70001B88FF2B01D87B6801E07B680433FB6094
:100D80003B681B881846FFF786FF03461A460F2369
:100D90009340DA43FB681B681A40FB681A603B68A3
:100DA0005B88042B0BD03B685B88052B07D03B6826
:100DB0005B88062B03D03B685B88072B0FD13B6811
:100DC0005B88043B9B005AB23B689B885BB2134331
:100DD0005BB2DBB203F00F03DBB2FB7226E03B68D1
:100DE0005B88002B03D03B685B88012B08D13B68F4
:100DF0005B889B00DBB203F00F03DBB2FB7215E0F4
:100E00000823FB723B685B88032B08D17B68DB6897
:100E10003A681288D2431A407B68DA6006E07B6841
:100E2000DB683A6812881A437B68DA60FB7ADBB2C7
:100E30001C463B681B881846FFF72DFF034604FA43
:100E400003F2FB681B681A43FB681A6000BF143783
:100E5000BD4690BD80B483B000AF78600B467B8008
:100E600013467B707B78012B03D17A887B681A61EB
:100E700002E07A887B685A6100BF0C37BD4680BCAF
:100E80007047000070B500250C4E0D4CA41BA4103B
:100E9000A54209D100F01AF800250A4E0A4CA41BFD
:100EA000A410A54205D170BD56F8253098470135EC
:100EB000EEE756F8253098470135F2E70C0F0008A9
:100EC0000C0F00080C0F0008100F0008F8B500BF49
:100ED000F8BC08BC9E467047F8B500BFF8BC08BC1B
:040EE0009E46704773
:100EE40009000000000C0140000217004952512083
:100EF40045585449392069732068617070656E657E
:080F040064205F7C2D20200019
:040F0C005501000883
:040F100031010008A3
:040000050800025994
:00000001FF
