:020000040800F2
:1000000000280020010300085103000851030008E4
:1000100051030008510300085103000800000000CC
:100020000000000000000000000000005103000874
:1000300051030008000000005103000851030008AC
:100040005103000851030008510300085103000840
:100050005103000851030008510300085103000830
:100060005103000851030008510300085103000820
:100070005103000851030008510300085103000810
:100080005103000851030008510300085103000800
:1000900051030008510300085103000851030008F0
:1000A00051030008510300085103000851030008E0
:1000B00051030008510300085103000851030008D0
:1000C00051030008510300085103000851030008C0
:1000D00051030008510300085103000851030008B0
:1000E00051030008510300080000000051030008FC
:1000F0005103000851030008510300085103000890
:10010000510300085103000851030008510300087F
:10011000510300085103000851030008510300086F
:10012000510300085103000851030008510300085F
:1001300010B5054C237833B9044B13B10448AFF321
:1001400000800123237010BD20000020000000006B
:10015000640C000808B5034B1BB103490348AFF317
:10016000008008BD0000000024000020640C00088E
:1001700080B586B000AF00F069F800F07BF800F0C1
:10018000E5FA2D4800F002FC4FF4FA7000F0F8F99F
:1001900000F012FA294A07F10C0307CA03C31A80B8
:1001A000274A3B4607CA03C31A800023FB751BE09E
:1001B000FB7D07F11802134413F80C3C9BB25B0261
:1001C0009BB219461F4800F01AFDFB7D07F118028B
:1001D000134413F8183C184600F046FBC82000F002
:1001E000CFF9FB7D0133FB75FB7D092BE0D900F0D6
:1001F000E3F900F0AFF8144800F0C8FB4FF4FA70D0
:1002000000F0BEF900F0D8F900F0F0F80346BB7535
:10021000BB7D3F2B02D0412B08D002E000F0CCF98F
:1002200005E0BB7D184600F01FFB00E000BF0A2080
:1002300000F0A6F9E8E700BF7C0C0008980C000865
:10024000A40C0008000C0140880C000880B400AF2A
:10025000074B9B69064A43F004039361044B9B6977
:10026000034A43F00803936100BFBD4680BC70475A
:100270000010024080B582B000AF04237B800123D0
:10028000BB804FF400733B803B4619461B4800F08F
:100290000CFC4FF480633B803B461946174800F046
:1002A00004FC4FF400633B803B461946134800F0C2
:1002B000FCFB4FF480533B803B4619460F4800F04F
:1002C000F4FB4FF400533B803B4619460B4800F0CB
:1002D000ECFB4FF480433B803B461946074800F057
:1002E000E4FB4FF400433B803B461946034800F0D3
:1002F000DCFB00BF0837BD4680BD00BF000C0140DD
:100300000D488546AFF300800C480D490D4A002387
:1003100002E0D458C4500433C4188C42F9D30A4ABA
:100320000A4C002301E013600432A242FBD300F028
:1003300075FCFFF71DFFFEE70028002000000020ED
:1003400020000020B80C00082000002044000020FD
:10035000FEE7000080B500AF224B04225A80214BFB
:1003600001229A801F4B01221A801E491E4800F06C
:100370009CFB1C4B02221A801A491B4800F095FB7B
:10038000184B08221A801749174800F08EFB154BAE
:1003900010221A801349144800F087FB114B2022C9
:1003A0001A801049104800F080FB0E4B40221A8042
:1003B0000C490D4800F079FB0A4B80221A8009494C
:1003C000094800F072FB074B4FF480721A80054910
:1003D000054800F06AFBFF21034800F010FC00BF55
:1003E00080BD00BF3C000020000C014080B582B001
:1003F00000AF012220215F4800F0EAFB01224021EA
:100400005C4800F0E5FB012280215A4800F0E0FB47
:1004100001224FF48071574800F0DAFB00237B6023
:100420009FE0554A7B6852F823309BB20022194660
:10043000504800F0CDFB00233B6081E04F4A3B6811
:1004400052F823309BB219464A4800F0AAFB0346F3
:10045000002B72D100BF494A3B6852F823309BB24F
:100460001946444800F09DFB0346002BF3D07B68FF
:10047000032B62D801A252F823F000BF8D040008BC
:10048000B5040008DD040008050500083B68002BE2
:1004900001D137236AE03B68012B01D1342365E0A9
:1004A0003B68022B01D1312360E03B68032B3DD137
:1004B0003F235BE03B68002B01D1382356E03B68CB
:1004C000012B01D1352351E03B68022B01D13223AE
:1004D0004CE03B68032B2BD1302347E03B68002BDB
:1004E00001D1392342E03B68012B01D136233DE0A5
:1004F0003B68022B01D1332338E03B68032B19D131
:100500003D2333E03B68002B01D12F232EE03B68D5
:10051000012B01D12A2329E03B68022B01D12D2395
:1005200024E03B68032B07D12B231FE000BF04E02E
:1005300000BF02E000BF00E000BF3B6801333B604A
:100540003B68032B7FF77AAF0B4A7B6852F8233066
:100550009BB201221946074800F03AFB7B68013341
:100560007B607B68032B7FF75CAF4123184608371D
:10057000BD4680BD000C014010000020000000209E
:1005800080B485B000AF78600023FB600BE00023EF
:10059000BB6002E0BB680133BB60BB68FE2BF9D9CE
:1005A000FB680133FB60FA687B689A42EFD300BFB7
:1005B0001437BD4680BC704780B500AF012000F005
:1005C000E3F800BF80BD000080B500AF01224FF40A
:1005D0008061074800F0FCFA0520FFF7D1FF0022F8
:1005E0004FF48061024800F0F3FA00BF80BD00BF05
:1005F0000008014080B500AF524B04225A80514B95
:100600004FF480621A804F4B01229A804D494E4828
:1006100000F04BFA4B4B04225A804A4B4FF40072C5
:100620001A80484B01229A804649474800F03DFA1B
:10063000444B04225A80434B4FF480721A80414B42
:1006400001229A803F49404800F02FFA00224FF4DF
:1006500080613D4800F0BCFA00224FF400713A4836
:1006600000F0B6FA00224FF48071374800F0B0FA7B
:10067000344B04225A80334B01221A80314B012221
:100680009A803049304800F010FA2E4B04225A80EC
:100690002C4B02221A802B4B01229A8029492A488E
:1006A00000F003FA274B04225A80264B04221A80BA
:1006B000244B01229A802349234800F0F6F9214B6C
:1006C00004225A801F4B08221A801E4B01229A8056
:1006D0001C491D4800F0E9F91A4B04225A80194BB5
:1006E00010221A80174B01229A801649164800F0F2
:1006F000DCF9144B04225A80124B20221A80114B31
:1007000001229A800F49104800F0CFF90D4B0422C6
:100710005A800C4B40221A800A4B01229A800949C8
:10072000094800F0C2F9074B04225A80054B802289
:100730001A80044B01229A800249034800F0B5F95F
:1007400000BF80BD3C0000200008014080B500AF24
:100750001420FFF715FFFFF74DFF1420FFF710FFE0
:10076000012000F011F8382000F00EF80520FFF706
:1007700007FF062000F008F8802000F005F80F20A1
:1007800000F002F800BF80BD80B582B000AF034624
:10079000FB7100224FF40071324800F019FA002278
:1007A0004FF480712F4800F013FAFB7903F0010336
:1007B000DBB21A4601212B4800F00AFAFB795B08EC
:1007C000DBB203F00103DBB21A460221254800F038
:1007D000FFF9FB799B08DBB203F00103DBB21A4699
:1007E0000421204800F0F4F9FB79DB08DBB203F0C8
:1007F0000103DBB21A4608211A4800F0E9F9FB7937
:100800001B09DBB203F00103DBB21A4610211548C5
:1008100000F0DEF9FB795B09DBB203F00103DBB228
:100820001A4620210F4800F0D3F9FB799B09DBB26F
:1008300003F00103DBB21A4640210A4800F0C8F970
:10084000FB79DB09DBB21A468021064800F0C0F9CB
:100850000120FFF795FEFFF7B7FE00BF0837BD4642
:1008600080BD00BF0008014080B582B000AF0346E4
:10087000FB7100224FF40071324800F0A9F9012207
:100880004FF480712F4800F0A3F9FB7903F00103C6
:10089000DBB21A4601212B4800F09AF9FB795B087C
:1008A000DBB203F00103DBB21A460221254800F057
:1008B0008FF9FB799B08DBB203F00103DBB21A4628
:1008C0000421204800F084F9FB79DB08DBB203F057
:1008D0000103DBB21A4608211A4800F079F9FB79C6
:1008E0001B09DBB203F00103DBB21A4610211548E5
:1008F00000F06EF9FB795B09DBB203F00103DBB2B8
:100900001A4620210F4800F063F9FB799B09DBB2FE
:1009100003F00103DBB21A4640210A4800F058F9FF
:10092000FB79DB09DBB21A468021064800F050F95A
:100930000120FFF725FEFFF747FE00BF0837BD4641
:1009400080BD00BF0008014080B582B000AF034603
:100950000A46FB711346BB71FB79012B09D1BB79A8
:100960000F2B06D8BB79803BDBB21846FFF70CFF94
:1009700008E0FB79022B05D1BB79403BDBB218467E
:10098000FFF702FF00BF0837BD4680BD80B584B0C9
:1009900000AF78600023FB601CE0FB680133FB6064
:1009A0007B685A1C7A601B781846FFF75DFFFB686E
:1009B000102B04D100210220FFF7C6FF0AE0FB68DC
:1009C000202B07D1FFF7F8FD00210120FFF7BCFF26
:1009D0000023FB607B681B78002BDED100BF103743
:1009E000BD4680BD80B483B000AF0346FB80FB886A
:1009F000802B42D0802B11DC082B36D0082B06DC54
:100A0000022B2ED0042B2ED0012B28D047E0202BF8
:100A10002FD0402B2FD0102B29D040E0B3F5006F02
:100A200033D0B3F5006F09DCB3F5007F29D0B3F5FF
:100A3000806F28D0B3F5807F21D030E0B3F5005F20
:100A400027D0B3F5005F03DCB3F5805F1FD026E04D
:100A5000B3F5804F1FD0B3F5004F1ED01FE0002329
:100A60001EE004231CE008231AE00C2318E01023E6
:100A700016E0142314E0182312E01C2310E00023D6
:100A80000EE004230CE008230AE00C2308E0102306
:100A900006E0142304E0182302E01C2300E00023F6
:100AA00018460C37BD4680BC704790B585B000AF86
:100AB000786039600023FB600023FB723B681B8871
:100AC000FF2B01D87B6801E07B680433FB603B6847
:100AD0001B881846FFF786FF03461A460F239340EC
:100AE000DA43FB681B681A40FB681A603B685B8846
:100AF000042B0BD03B685B88052B07D03B685B88D9
:100B0000062B03D03B685B88072B0FD13B685B88C3
:100B1000043B9B005AB23B689B885BB213435BB2B9
:100B2000DBB203F00F03DBB2FB7226E03B685B88AD
:100B3000002B03D03B685B88012B08D13B685B88A6
:100B40009B00DBB203F00F03DBB2FB7215E008235E
:100B5000FB723B685B88032B08D17B68DB683A68D3
:100B60001288D2431A407B68DA6006E07B68DB6853
:100B70003A6812881A437B68DA60FB7ADBB21C465B
:100B80003B681B881846FFF72DFF034604FA03F263
:100B9000FB681B681A43FB681A6000BF1437BD4628
:100BA00090BD80B485B000AF78600B467B807B68D9
:100BB0009A687B881340002B02D00123FB7301E06D
:100BC0000023FB73FB7B18461437BD4680BC70477F
:100BD00080B483B000AF78600B467B8013467B7097
:100BE0007B78012B03D17A887B681A6102E07A88CE
:100BF0007B685A6100BF0C37BD4680BC704780B42B
:100C000083B000AF78600B467B807A887B68DA60BF
:100C100000BF0C37BD4680BC7047000070B5002592
:100C20000C4E0D4CA41BA410A54209D100F01AF8DB
:100C300000250A4E0A4CA41BA410A54205D170BD84
:100C400056F8253098470135EEE756F82530984795
:100C50000135F2E7B00C0008B00C0008B00C000839
:100C6000B40C0008F8B500BFF8BC08BC9E4670473D
:0C0C7000F8B500BFF8BC08BC9E467047F9
:100C7C004865792074686572650000004B65797071
:100C8C006164206973207265616479000179243094
:100C9C004C12021900100000303132333435363723
:040CAC0038390000D3
:040CB00055010008E2
:040CB4003101000802
:100CB8000100000002000000080000001000000011
:100CC800200000004000000080000000000100003B
:0400000508000301EB
:00000001FF
