:100000000C942A000C9434000C9434000C943400AA
:100010000C9434000C9434000C9434000C94340090
:100020000C9434000C9434000C9434000C94340080
:100030000C9434000C9434000C9434000C94340070
:100040000C9434000C9434000C9434000C94340060
:100050000C94340011241FBECFE5D8E0DEBFCDBF25
:100060000E9436000C946D000C9400008FEF8ABB48
:100070001BBA20E015C03BB381E090E0022E02C025
:10008000880F991F0A94E2F7832B8BBB3FEF84E321
:100090009CE0315080409040E1F700C000002F5FAD
:1000A00028304CF327E016C03BB381E090E0022EED
:1000B00002C0880F991F0A94E2F7809583238BBBB7
:1000C0003FEF84E39CE0315080409040E1F700C076
:0E00D00000002150222344F7CCCFF894FFCF3C
:00000001FF
