:020000040800F2
:1000000000280020B50100088D01000891010008BA
:1000100095010008990100089D01000800000000FA
:10002000000000000000000000000000A101000826
:10003000A501000800000000A9010008AD010008AA
:10004000FD010008FD010008FD010008FD01000898
:10005000FD010008FD010008FD010008FD01000888
:10006000FD010008FD010008FD010008FD01000878
:10007000FD010008FD010008FD010008FD01000868
:10008000FD010008FD010008FD010008FD01000858
:10009000FD010008FD010008FD010008FD01000848
:1000A000FD010008FD010008FD010008FD01000838
:1000B000FD010008FD01000800000000FD0100082E
:1000C000FD0100080000000000000000FD01000824
:1000D00000000000FD010008FD0100080000000014
:1000E000FD010008FD010008FD01000800000000FE
:1000F0000000000000000000000000000000000000
:0C01000000000000000000005FF808F1A3
:10010C0010B5054C237833B9044B13B10448AFF345
:10011C0000800123237010BD0800002000000000A7
:10012C006002000808B5034B1BB103490348AFF349
:10013C00008008BD000000000C00002060020008D8
:10014C000C490D4B0A680D4842F004020A601A680B
:10015C0022F470021A601A6842F400121A600368E2
:10016C001A8842F400521A801A886FF34D321A80A2
:10017C00F6E700BF18100240040801400000002000
:10018C00704700BFFEE700BFFEE700BFFEE700BF01
:10019C00FEE700BF704700BF704700BF704700BF4D
:1001AC0000F028B8704700BF0C480D490D4A0023D9
:1001BC0002E0D458C4500433C4188C42F9D30A4A10
:1001CC000A4C002301E013600432A242FBD3FFF778
:1001DC00E9FF00F01BF8FFF7B3FF704700000020A9
:1001EC0008000020800200080800002028000020E1
:1001FC00FEE70000034A044B11681B780B441360A4
:10020C00704700BF240000200400002070B50025BA
:10021C000C4E0D4CA41BA410A54209D100F01AF8E9
:10022C0000250A4E0A4CA41BA410A54205D170BD92
:10023C0056F8253098470135EEE756F825309847A3
:10024C000135F2E77802000878020008780200080D
:10025C007C020008F8B500BFF8BC08BC9E4670478D
:0C026C00F8B500BFF8BC08BC9E46704707
:040278003101000848
:04027C000D01000868
:080280000C0801400100000020
:04000005080001B539
:00000001FF
