S00E00005461736B20332E7372656330
S11300000C942A000C9434000C9434000C943400A6
S11300100C9434000C9434000C9434000C9434008C
S11300200C9434000C9434000C9434000C9434007C
S11300300C9434000C9434000C9434000C9434006C
S11300400C9434000C9434000C9434000C9434005C
S11300500C94340011241FBECFE5D8E0DEBFCDBF21
S11300600E9467000C94CE000C94000081B3806160
S113007081BB81B3806281BB81B3806481BB81B366
S1130080806881BB81B38E7F81BB81B38D7F81BB4F
S113009081B38B7F81BB82B3816082BB82B3826078
S11300A082BB82B3846082BB84B3846084BB84B328
S11300B0886084BB84B3806184BB84B3806284BB66
S11300C084B3806484BB84B3806884BB08950E9435
S11300D0360055E0809B11C082B3806182BB2FEF54
S11300E064E38CE0215060408040E1F700C00000F0
S11300F082B38F7E82BB8099FECF819B1BC0583018
S113010069F022B381E090E0052E02C0880F991FA8
S11301100A94E2F7822B82BB5F5F0AC082B38F7DB1
S113012082BB82B38F7B82BB82B38F7782BB55E065
S11301308199FECF82992BC0CDCF60E14602C001E8
S113014011248B6085BB8FEF99EF60E08150904064
S11301506040E1F700C0000060E13602C0011124F4
S1130160876085BB8FEF99EF60E0815090406040DD
S1130170E1F700C000002F5F01C020E02A30ECF25C
S11301803F5F01C030E03A30C4F34F5F01C040E04C
S11301904A30C4F315BA8299FECF9CCFF894FFCFAE
S9030000FC
