:100000000C942A000C943F000C943F000C943F0089
:100010000C943F000C943F000C943F000C943F0064
:100020000C943F000C943F000C943F000C943F0054
:100030000C943F000C943F000C943F000C943F0044
:100040000C943F000C943F000C943F000C943F0034
:100050000C943F0011241FBECFE5D8E0DEBFCDBF1A
:1000600010E0A0E6B0E0EAE4F2E002C005900D92F4
:10007000A636B107D9F70E94D5000C9423010C9441
:10008000000088B3846088BB8FEC97E00197F1F79C
:1000900000C0000088B38B7F88BB08958AB31ABA6A
:1000A00088B3826088BB88B38E7F88BB0E94410082
:1000B0008AB38FEF8ABB88B38D7F88BB0895CF93B7
:1000C000C82F0E944E00CBBB0E944100CF910895E3
:1000D00081E00E945F0008958FE39CE90197F1F7AA
:1000E00000C0000087B3876087BB88B3887F88BB68
:1000F0008FEF8ABB81E00E945F008FE19EE4019751
:10010000F1F700C0000088E30E945F0086E00E94D3
:100110005F0080E80E945F008FE00E945F0008950A
:10012000CF93C82F0E944E0088B3816088BBCBBBA1
:100130000E944100CF910895813039F4603128F454
:1001400080E8860F0E945F000895823021F480ECE1
:10015000860F0E945F0008950F931F93CF93DF9344
:100160008C01C0E0D0E018C021960F5F1F4F0E94A5
:100170009000C031D10529F460E082E00E949C002B
:100180000BC0C032D10541F40E94680060E081E0FC
:100190000E949C00C0E0D0E0F80180818111E4CF92
:1001A000DF91CF911F910F910895CF93DF93CDB73A
:1001B000DEB7C456D1090FB6F894DEBF0FBECDBF6F
:1001C0000E94FD000E946C008AE50E94090189E6F8
:1001D0000E94090181E60E94090184E60E9409014A
:1001E00080E690E00E94AC00CE0101960E941101D1
:1001F000CE0101960E94AC00F7CF83E389B98BB1A1
:100200008D7F8BB98AB188608AB98AB180618AB9D9
:1002100008955D9BFECF8CB908955F9BFECF8CB196
:100220000895CF93DF93EC010E940D01888304C0F1
:1002300021960E940D01888388818D30C9F718822C
:0A024000DF91CF910895F894FFCFED
:06024A007A696164000006
:00000001FF
