S01D00005461736B2032202833204C454420544F47474C45292E73726563A7
S11300000C942A000C9434000C9434000C943400A6
S11300100C9434000C9434000C9434000C9434008C
S11300200C9434000C9434000C9434000C9434007C
S11300300C9434000C9434000C9434000C9434006C
S11300400C9434000C9434000C9434000C9434005C
S11300500C94340011241FBECFE5D8E0DEBFCDBF21
S11300600E9436000C945C000C9400008AB38160FA
S11300708ABB8AB382608ABB8AB384608ABB1BBA98
S113008084B3816084BB85B3816085BB20E001C0FB
S113009020E09899FECF3BB381E090E0022E02C0AD
S11300A0880F991F0A94E2F783278BBB989BFECF96
S10F00B0223071F32F5FEDCFF894FFCFE6
S9030000FC
