:100000000C942A000C9434000C9434000C943400AA
:100010000C9434000C9434000C9434000C94340090
:100020000C9434000C9434000C9434000C94340080
:100030000C9434000C9434000C9434000C94340070
:100040000C9434000C9434000C9434000C94340060
:100050000C94340011241FBECFE5D8E0DEBFCDBF25
:100060000E949C000C94CF000C94000081B380612E
:1000700081BB82B38F7E82BB81B3806281BB82B33E
:100080008F7D82BB81B3806481BB82B38F7B82BB57
:1000900081B3806881BB82B38F7782BB0895CF9391
:1000A000DF93CDB7DEB72C970FB6F894DEBF0FBE47
:1000B000CDBF69877A878B879C8719821A821B82BA
:1000C0001C8224C01D821E821F8218860BC08D8157
:1000D0009E81AF81B8850196A11DB11D8D839E8340
:1000E000AF83B8878D819E81AF81B8858F3F9105A1
:1000F000A105B10560F389819A81AB81BC8101962C
:10010000A11DB11D89839A83AB83BC8349815A8128
:100110006B817C8189859A85AB85BC854817590799
:100120006A077B0778F22C960FB6F894DEBF0FBEF5
:10013000CDBFDF91CF9108950E94360082B38062D7
:1001400082BB64E670E080E090E00E944F0082B3E2
:100150008F7D82BB82B3806482BB64E670E080E006
:1001600090E00E944F0082B38F7B82BB82B3806895
:1001700082BB64E670E080E090E00E944F0082B3B2
:100180008F7782BB82B3806182BB64E670E080E0DF
:1001900090E00E944F0082B38F7E82BBCFCFF89455
:0201A000FFCF8F
:00000001FF
