:100000000C942A000C943F000C943F000C943F0089
:100010000C943F000C943F000C943F000C943F0064
:100020000C943F000C943F000C943F000C943F0054
:100030000C943F000C943F000C943F000C943F0044
:100040000C943F000C943F000C943F000C943F0034
:100050000C943F0011241FBECFE5D8E0DEBFCDBF1A
:1000600010E0A0E6B0E0E4E1F3E002C005900D92FC
:10007000A037B107D9F70E9465010C9488010C9450
:10008000000084B3807F84BB84B3806F84BB8FEF18
:1000900085BB089585B3806F85BB60E070E094C038
:1000A00025B3FB01EE0FFF1FE05AFF4F81E090E008
:1000B000008002C0880F991F0A94E2F7809582237E
:1000C00085BB40E050E069C083B3FA01EE0FFF1F2B
:1000D000E859FF4F208190E0022E02C09595879548
:1000E0000A94E2F780FD57C083B390E0022E02C06D
:1000F000959587950A94E2F780FFF6CF61307105F8
:10010000E1F024F46115710541F045C062307105DC
:1001100021F16330710589F13EC04115510509F4A3
:1001200059C04130510509F457C04230510509F416
:1001300055C04330510579F553C04115510509F4B7
:1001400051C04130510509F44FC04230510509F406
:100150004DC043305105F9F44BC04115510509F428
:1001600049C04130510509F447C04230510509F4F6
:1001700045C04330510579F443C04115510509F498
:1001800041C04130510509F43FC042305105F1F101
:1001900043305105E9F14F5F5F4F443051050CF496
:1001A00093CF25B3FB01EE0FFF1FE05AFF4F81E015
:1001B00090E0008002C0880F991F0A94E2F78095B2
:1001C000822385BB6F5F7F4F643071050CF468CF6D
:1001D00081E4089587E3089584E3089581E3089511
:1001E0008FE3089588E3089585E3089582E30895F1
:1001F00080E3089589E3089586E3089583E30895ED
:100200008DE308958FE208958AE208958DE20895BE
:100210008BE2089588B3846088BB8FEC97E00197E8
:10022000F1F700C0000088B38B7F88BB08958AB3C4
:100230001ABA88B3826088BB88B38E7F88BB0E945D
:100240000A018AB38FEF8ABB88B38D7F88BB08957C
:10025000CF93C82F0E941701CBBB0E940A01CF91F8
:10026000089581E00E94280108958FE39CE9019799
:10027000F1F700C0000087B3876087BB88B3887F31
:1002800088BB8FEF8ABB81E00E9428018FE19EE44A
:100290000197F1F700C0000088E30E94280186E082
:1002A0000E94280180E80E9428018FE00E94280116
:1002B0000895CF93C82F0E94170188B3816088BB2F
:1002C000CBBB0E940A01CF9108950E9435010E9484
:1002D00041002FE788E391E0215080409040E1F712
:1002E00000C000000E944A008F3319F0813431F0C1
:1002F00003C00E94310102C00E9459012FE788E328
:1003000091E0215080409040E1F700C00000EACF2A
:04031000F894FFCF8F
:1003140004000500060007000000010002000300BD
:00000001FF
